{
  "contractName": "AzizaLedger",
  "abi": [
    {
      "constant": true,
      "inputs": [],
      "name": "aneAccount",
      "outputs": [
        {
          "name": "",
          "type": "address"
        }
      ],
      "payable": false,
      "stateMutability": "view",
      "type": "function"
    },
    {
      "constant": true,
      "inputs": [],
      "name": "name",
      "outputs": [
        {
          "name": "",
          "type": "string"
        }
      ],
      "payable": false,
      "stateMutability": "view",
      "type": "function"
    },
    {
      "constant": true,
      "inputs": [],
      "name": "foundationAccount",
      "outputs": [
        {
          "name": "",
          "type": "address"
        }
      ],
      "payable": false,
      "stateMutability": "view",
      "type": "function"
    },
    {
      "constant": true,
      "inputs": [],
      "name": "decimals",
      "outputs": [
        {
          "name": "",
          "type": "uint8"
        }
      ],
      "payable": false,
      "stateMutability": "view",
      "type": "function"
    },
    {
      "constant": true,
      "inputs": [],
      "name": "totalSupply_",
      "outputs": [
        {
          "name": "",
          "type": "uint256"
        }
      ],
      "payable": false,
      "stateMutability": "view",
      "type": "function"
    },
    {
      "constant": true,
      "inputs": [],
      "name": "cap",
      "outputs": [
        {
          "name": "",
          "type": "uint256"
        }
      ],
      "payable": false,
      "stateMutability": "view",
      "type": "function"
    },
    {
      "constant": true,
      "inputs": [],
      "name": "initialSupply",
      "outputs": [
        {
          "name": "",
          "type": "uint256"
        }
      ],
      "payable": false,
      "stateMutability": "view",
      "type": "function"
    },
    {
      "constant": true,
      "inputs": [],
      "name": "standard",
      "outputs": [
        {
          "name": "",
          "type": "string"
        }
      ],
      "payable": false,
      "stateMutability": "view",
      "type": "function"
    },
    {
      "constant": true,
      "inputs": [],
      "name": "contractPaused",
      "outputs": [
        {
          "name": "",
          "type": "bool"
        }
      ],
      "payable": false,
      "stateMutability": "view",
      "type": "function"
    },
    {
      "constant": true,
      "inputs": [],
      "name": "symbol",
      "outputs": [
        {
          "name": "",
          "type": "string"
        }
      ],
      "payable": false,
      "stateMutability": "view",
      "type": "function"
    },
    {
      "constant": true,
      "inputs": [],
      "name": "totalMinted",
      "outputs": [
        {
          "name": "",
          "type": "uint256"
        }
      ],
      "payable": false,
      "stateMutability": "view",
      "type": "function"
    },
    {
      "constant": true,
      "inputs": [],
      "name": "superUser",
      "outputs": [
        {
          "name": "",
          "type": "address"
        }
      ],
      "payable": false,
      "stateMutability": "view",
      "type": "function"
    },
    {
      "constant": true,
      "inputs": [],
      "name": "totalTokensInCirculation",
      "outputs": [
        {
          "name": "",
          "type": "uint256"
        }
      ],
      "payable": false,
      "stateMutability": "view",
      "type": "function"
    },
    {
      "constant": true,
      "inputs": [],
      "name": "teamAccount",
      "outputs": [
        {
          "name": "",
          "type": "address"
        }
      ],
      "payable": false,
      "stateMutability": "view",
      "type": "function"
    },
    {
      "constant": true,
      "inputs": [],
      "name": "reserveAccount",
      "outputs": [
        {
          "name": "",
          "type": "address"
        }
      ],
      "payable": false,
      "stateMutability": "view",
      "type": "function"
    },
    {
      "constant": true,
      "inputs": [],
      "name": "developerAccount",
      "outputs": [
        {
          "name": "",
          "type": "address"
        }
      ],
      "payable": false,
      "stateMutability": "view",
      "type": "function"
    },
    {
      "constant": true,
      "inputs": [],
      "name": "admin",
      "outputs": [
        {
          "name": "",
          "type": "address"
        }
      ],
      "payable": false,
      "stateMutability": "view",
      "type": "function"
    },
    {
      "constant": true,
      "inputs": [],
      "name": "treasurer",
      "outputs": [
        {
          "name": "",
          "type": "address"
        }
      ],
      "payable": false,
      "stateMutability": "view",
      "type": "function"
    },
    {
      "inputs": [
        {
          "name": "_reserveAccount",
          "type": "address"
        },
        {
          "name": "_developerAccount",
          "type": "address"
        },
        {
          "name": "_foundationAccount",
          "type": "address"
        },
        {
          "name": "_checkerContract",
          "type": "address"
        },
        {
          "name": "_tokenName",
          "type": "string"
        },
        {
          "name": "_tokenSymbol",
          "type": "string"
        }
      ],
      "payable": false,
      "stateMutability": "nonpayable",
      "type": "constructor"
    },
    {
      "anonymous": false,
      "inputs": [],
      "name": "ContractPaused",
      "type": "event"
    },
    {
      "anonymous": false,
      "inputs": [],
      "name": "ContractUnpaused",
      "type": "event"
    },
    {
      "anonymous": false,
      "inputs": [
        {
          "indexed": false,
          "name": "newCheckerContract",
          "type": "address"
        }
      ],
      "name": "NewCheckerContractAddress",
      "type": "event"
    },
    {
      "anonymous": false,
      "inputs": [
        {
          "indexed": false,
          "name": "numberBurnt",
          "type": "uint256"
        }
      ],
      "name": "Burn",
      "type": "event"
    },
    {
      "anonymous": false,
      "inputs": [
        {
          "indexed": true,
          "name": "acct",
          "type": "address"
        },
        {
          "indexed": false,
          "name": "numberConfiscated",
          "type": "uint256"
        }
      ],
      "name": "Confiscated",
      "type": "event"
    },
    {
      "anonymous": false,
      "inputs": [
        {
          "indexed": true,
          "name": "to",
          "type": "address"
        },
        {
          "indexed": false,
          "name": "amount",
          "type": "uint256"
        }
      ],
      "name": "Mint",
      "type": "event"
    },
    {
      "anonymous": false,
      "inputs": [],
      "name": "MintFinished",
      "type": "event"
    },
    {
      "anonymous": false,
      "inputs": [
        {
          "indexed": true,
          "name": "from",
          "type": "address"
        },
        {
          "indexed": true,
          "name": "to",
          "type": "address"
        },
        {
          "indexed": false,
          "name": "value",
          "type": "uint256"
        }
      ],
      "name": "Transfer",
      "type": "event"
    },
    {
      "anonymous": false,
      "inputs": [
        {
          "indexed": true,
          "name": "owner",
          "type": "address"
        },
        {
          "indexed": true,
          "name": "spender",
          "type": "address"
        },
        {
          "indexed": false,
          "name": "value",
          "type": "uint256"
        }
      ],
      "name": "Approval",
      "type": "event"
    },
    {
      "anonymous": false,
      "inputs": [
        {
          "indexed": false,
          "name": "totalTokenSupply",
          "type": "uint256"
        },
        {
          "indexed": false,
          "name": "totalTokenInCirculation",
          "type": "uint256"
        }
      ],
      "name": "TokenSupply",
      "type": "event"
    },
    {
      "anonymous": false,
      "inputs": [
        {
          "indexed": false,
          "name": "newTreasurer",
          "type": "address"
        }
      ],
      "name": "NewTreasurerAccount",
      "type": "event"
    },
    {
      "anonymous": false,
      "inputs": [
        {
          "indexed": false,
          "name": "superUser",
          "type": "address"
        }
      ],
      "name": "NewSuperUserAccount",
      "type": "event"
    },
    {
      "anonymous": false,
      "inputs": [
        {
          "indexed": false,
          "name": "newAdmin",
          "type": "address"
        }
      ],
      "name": "NewAdminAccount",
      "type": "event"
    },
    {
      "constant": false,
      "inputs": [
        {
          "name": "_amount",
          "type": "uint256"
        }
      ],
      "name": "mint",
      "outputs": [
        {
          "name": "",
          "type": "bool"
        }
      ],
      "payable": false,
      "stateMutability": "nonpayable",
      "type": "function"
    },
    {
      "constant": false,
      "inputs": [],
      "name": "finishMinting",
      "outputs": [
        {
          "name": "",
          "type": "bool"
        }
      ],
      "payable": false,
      "stateMutability": "nonpayable",
      "type": "function"
    },
    {
      "constant": false,
      "inputs": [
        {
          "name": "_amountToBurn",
          "type": "uint256"
        }
      ],
      "name": "burn",
      "outputs": [
        {
          "name": "",
          "type": "bool"
        }
      ],
      "payable": false,
      "stateMutability": "nonpayable",
      "type": "function"
    },
    {
      "constant": false,
      "inputs": [
        {
          "name": "_amountToConfiscate",
          "type": "uint256"
        },
        {
          "name": "_from",
          "type": "address"
        }
      ],
      "name": "confiscate",
      "outputs": [
        {
          "name": "",
          "type": "bool"
        }
      ],
      "payable": false,
      "stateMutability": "nonpayable",
      "type": "function"
    },
    {
      "constant": false,
      "inputs": [
        {
          "name": "_to",
          "type": "address"
        },
        {
          "name": "_value",
          "type": "uint256"
        }
      ],
      "name": "treasurerTransfer",
      "outputs": [
        {
          "name": "",
          "type": "bool"
        }
      ],
      "payable": false,
      "stateMutability": "nonpayable",
      "type": "function"
    },
    {
      "constant": true,
      "inputs": [],
      "name": "totalSupply",
      "outputs": [
        {
          "name": "",
          "type": "uint256"
        }
      ],
      "payable": false,
      "stateMutability": "view",
      "type": "function"
    },
    {
      "constant": true,
      "inputs": [
        {
          "name": "_owner",
          "type": "address"
        }
      ],
      "name": "balanceOf",
      "outputs": [
        {
          "name": "",
          "type": "uint256"
        }
      ],
      "payable": false,
      "stateMutability": "view",
      "type": "function"
    },
    {
      "constant": true,
      "inputs": [
        {
          "name": "_owner",
          "type": "address"
        },
        {
          "name": "_spender",
          "type": "address"
        }
      ],
      "name": "allowance",
      "outputs": [
        {
          "name": "",
          "type": "uint256"
        }
      ],
      "payable": false,
      "stateMutability": "view",
      "type": "function"
    },
    {
      "constant": false,
      "inputs": [
        {
          "name": "_to",
          "type": "address"
        },
        {
          "name": "_value",
          "type": "uint256"
        }
      ],
      "name": "transfer",
      "outputs": [
        {
          "name": "",
          "type": "bool"
        }
      ],
      "payable": false,
      "stateMutability": "nonpayable",
      "type": "function"
    },
    {
      "constant": false,
      "inputs": [
        {
          "name": "_spender",
          "type": "address"
        },
        {
          "name": "_value",
          "type": "uint256"
        }
      ],
      "name": "approve",
      "outputs": [
        {
          "name": "",
          "type": "bool"
        }
      ],
      "payable": false,
      "stateMutability": "nonpayable",
      "type": "function"
    },
    {
      "constant": false,
      "inputs": [
        {
          "name": "_from",
          "type": "address"
        },
        {
          "name": "_to",
          "type": "address"
        },
        {
          "name": "_value",
          "type": "uint256"
        }
      ],
      "name": "transferFrom",
      "outputs": [
        {
          "name": "",
          "type": "bool"
        }
      ],
      "payable": false,
      "stateMutability": "nonpayable",
      "type": "function"
    },
    {
      "constant": false,
      "inputs": [
        {
          "name": "_spender",
          "type": "address"
        },
        {
          "name": "_addedValue",
          "type": "uint256"
        }
      ],
      "name": "increaseApproval",
      "outputs": [
        {
          "name": "",
          "type": "bool"
        }
      ],
      "payable": false,
      "stateMutability": "nonpayable",
      "type": "function"
    },
    {
      "constant": false,
      "inputs": [
        {
          "name": "_spender",
          "type": "address"
        },
        {
          "name": "_subtractedValue",
          "type": "uint256"
        }
      ],
      "name": "decreaseApproval",
      "outputs": [
        {
          "name": "",
          "type": "bool"
        }
      ],
      "payable": false,
      "stateMutability": "nonpayable",
      "type": "function"
    },
    {
      "constant": false,
      "inputs": [
        {
          "name": "_superUser",
          "type": "address"
        }
      ],
      "name": "superUserTransferSuperUser",
      "outputs": [],
      "payable": false,
      "stateMutability": "nonpayable",
      "type": "function"
    },
    {
      "constant": false,
      "inputs": [
        {
          "name": "_newTreasurer",
          "type": "address"
        }
      ],
      "name": "superUserTransferTreasurership",
      "outputs": [],
      "payable": false,
      "stateMutability": "nonpayable",
      "type": "function"
    },
    {
      "constant": false,
      "inputs": [
        {
          "name": "_NewFoundationAccount",
          "type": "address"
        },
        {
          "name": "_newDeveloperAccount",
          "type": "address"
        },
        {
          "name": "_NewReserveAccount",
          "type": "address"
        }
      ],
      "name": "superUserResetContractAccounts",
      "outputs": [],
      "payable": false,
      "stateMutability": "nonpayable",
      "type": "function"
    },
    {
      "constant": false,
      "inputs": [
        {
          "name": "_newAdmin",
          "type": "address"
        }
      ],
      "name": "treasurerChangeAdminAccount",
      "outputs": [],
      "payable": false,
      "stateMutability": "nonpayable",
      "type": "function"
    },
    {
      "constant": false,
      "inputs": [],
      "name": "pauseContract",
      "outputs": [
        {
          "name": "success",
          "type": "bool"
        }
      ],
      "payable": false,
      "stateMutability": "nonpayable",
      "type": "function"
    },
    {
      "constant": false,
      "inputs": [],
      "name": "unPauseContract",
      "outputs": [
        {
          "name": "success",
          "type": "bool"
        }
      ],
      "payable": false,
      "stateMutability": "nonpayable",
      "type": "function"
    },
    {
      "constant": false,
      "inputs": [
        {
          "name": "_checkerContract",
          "type": "address"
        }
      ],
      "name": "changeCheckerContractAddress",
      "outputs": [],
      "payable": false,
      "stateMutability": "nonpayable",
      "type": "function"
    }
  ],
  "bytecode": "0x60806040523480156200001157600080fd5b5060405162003f1238038062003f128339810180604052810190808051906020019092919080519060200190929190805190602001909291908051906020019092919080518201929190602001805182019291905050506000600d8190555067016345785d8a0000600f819055506000600e8190555060006010819055506008600b60006101000a81548160ff021916908360ff16021790555033600660006101000a81548173ffffffffffffffffffffffffffffffffffffffff021916908373ffffffffffffffffffffffffffffffffffffffff16021790555033600760006101000a81548173ffffffffffffffffffffffffffffffffffffffff021916908373ffffffffffffffffffffffffffffffffffffffff16021790555033600860006101000a81548173ffffffffffffffffffffffffffffffffffffffff021916908373ffffffffffffffffffffffffffffffffffffffff1602179055508573ffffffffffffffffffffffffffffffffffffffff163373ffffffffffffffffffffffffffffffffffffffff161415620001a857600080fd5b8473ffffffffffffffffffffffffffffffffffffffff163373ffffffffffffffffffffffffffffffffffffffff161415620001e257600080fd5b8373ffffffffffffffffffffffffffffffffffffffff163373ffffffffffffffffffffffffffffffffffffffff1614156200021c57600080fd5b85600560006101000a81548173ffffffffffffffffffffffffffffffffffffffff021916908373ffffffffffffffffffffffffffffffffffffffff16021790555084600160006101000a81548173ffffffffffffffffffffffffffffffffffffffff021916908373ffffffffffffffffffffffffffffffffffffffff16021790555083600360006101000a81548173ffffffffffffffffffffffffffffffffffffffff021916908373ffffffffffffffffffffffffffffffffffffffff1602179055508160099080519060200190620002f7929190620004bf565b5080600a908051906020019062000310929190620004bf565b506008600b60006101000a81548160ff021916908360ff16021790555060008060146101000a81548160ff0219169083151502179055506000601160006101000a81548160ff0219169083151502179055506001601160016101000a81548160ff0219169083151502179055507f0e5e3b3fb504c22cf5c42fa07d521225937514c654007e1f12646f89768d6f9460405160405180910390a1620003c26200040e640100000000026401000000009004565b826000806101000a81548173ffffffffffffffffffffffffffffffffffffffff021916908373ffffffffffffffffffffffffffffffffffffffff1602179055505050505050506200056e565b60126000600760009054906101000a900473ffffffffffffffffffffffffffffffffffffffff1673ffffffffffffffffffffffffffffffffffffffff1673ffffffffffffffffffffffffffffffffffffffff1681526020019081526020016000205460105403600c819055507fe06830e356ba57435194a3a2cd2e891be4eb8c2c5cd591ae229a0c1b28af6983601054600c54604051808381526020018281526020019250505060405180910390a1565b828054600181600116156101000203166002900490600052602060002090601f016020900481019282601f106200050257805160ff191683800117855562000533565b8280016001018555821562000533579182015b828111156200053257825182559160200191906001019062000515565b5b50905062000542919062000546565b5090565b6200056b91905b80821115620005675760008160009055506001016200054d565b5090565b90565b613994806200057e6000396000f3006080604052600436106101d7576000357c0100000000000000000000000000000000000000000000000000000000900463ffffffff168062152bc7146101dc57806306fdde0314610233578063095ea7b3146102c357806318160ddd1461032857806319e367081461035357806323b872dd146103aa578063313ce5671461042f578063324536eb14610460578063355274ea1461048b578063378dc3dc146104b657806342966c68146104e1578063439766ce146105265780635a3b7e421461055557806366188463146105e5578063691142261461064a5780636929cc5a1461068d57806370a08231146106f25780637494006d146107495780637d64bcb4146107ae5780638a67456a146107dd57806395d89b411461080c578063a0712d681461089c578063a2309ff8146108e1578063a9059cbb1461090c578063b65c630b14610971578063b8c16d15146109c8578063bac1520314610a0b578063bcd85d4814610a3a578063cc49dba014610abd578063ccc3b59e14610b00578063d05ee72714610b2b578063d73dd62314610b82578063dc184e7014610be7578063dd62ed3e14610c3e578063e873ee6514610cb5578063f6ec91d514610cf8578063f851a44014610d4f578063fda49eb414610da6575b600080fd5b3480156101e857600080fd5b506101f1610dfd565b604051808273ffffffffffffffffffffffffffffffffffffffff1673ffffffffffffffffffffffffffffffffffffffff16815260200191505060405180910390f35b34801561023f57600080fd5b50610248610e23565b6040518080602001828103825283818151815260200191508051906020019080838360005b8381101561028857808201518184015260208101905061026d565b50505050905090810190601f1680156102b55780820380516001836020036101000a031916815260200191505b509250505060405180910390f35b3480156102cf57600080fd5b5061030e600480360381019080803573ffffffffffffffffffffffffffffffffffffffff16906020019092919080359060200190929190505050610ec1565b604051808215151515815260200191505060405180910390f35b34801561033457600080fd5b5061033d610fcc565b6040518082815260200191505060405180910390f35b34801561035f57600080fd5b50610368610fd6565b604051808273ffffffffffffffffffffffffffffffffffffffff1673ffffffffffffffffffffffffffffffffffffffff16815260200191505060405180910390f35b3480156103b657600080fd5b50610415600480360381019080803573ffffffffffffffffffffffffffffffffffffffff169060200190929190803573ffffffffffffffffffffffffffffffffffffffff16906020019092919080359060200190929190505050610ffc565b604051808215151515815260200191505060405180910390f35b34801561043b57600080fd5b50610444611417565b604051808260ff1660ff16815260200191505060405180910390f35b34801561046c57600080fd5b5061047561142a565b6040518082815260200191505060405180910390f35b34801561049757600080fd5b506104a0611430565b6040518082815260200191505060405180910390f35b3480156104c257600080fd5b506104cb611436565b6040518082815260200191505060405180910390f35b3480156104ed57600080fd5b5061050c6004803603810190808035906020019092919050505061143c565b604051808215151515815260200191505060405180910390f35b34801561053257600080fd5b5061053b611606565b604051808215151515815260200191505060405180910390f35b34801561056157600080fd5b5061056a6116b2565b6040518080602001828103825283818151815260200191508051906020019080838360005b838110156105aa57808201518184015260208101905061058f565b50505050905090810190601f1680156105d75780820380516001836020036101000a031916815260200191505b509250505060405180910390f35b3480156105f157600080fd5b50610630600480360381019080803573ffffffffffffffffffffffffffffffffffffffff169060200190929190803590602001909291905050506116eb565b604051808215151515815260200191505060405180910390f35b34801561065657600080fd5b5061068b600480360381019080803573ffffffffffffffffffffffffffffffffffffffff16906020019092919050505061198e565b005b34801561069957600080fd5b506106d8600480360381019080803573ffffffffffffffffffffffffffffffffffffffff16906020019092919080359060200190929190505050611c72565b604051808215151515815260200191505060405180910390f35b3480156106fe57600080fd5b50610733600480360381019080803573ffffffffffffffffffffffffffffffffffffffff169060200190929190505050611eab565b6040518082815260200191505060405180910390f35b34801561075557600080fd5b5061079460048036038101908080359060200190929190803573ffffffffffffffffffffffffffffffffffffffff169060200190929190505050611ef4565b604051808215151515815260200191505060405180910390f35b3480156107ba57600080fd5b506107c3612278565b604051808215151515815260200191505060405180910390f35b3480156107e957600080fd5b506107f261233e565b604051808215151515815260200191505060405180910390f35b34801561081857600080fd5b50610821612351565b6040518080602001828103825283818151815260200191508051906020019080838360005b83811015610861578082015181840152602081019050610846565b50505050905090810190601f16801561088e5780820380516001836020036101000a031916815260200191505b509250505060405180910390f35b3480156108a857600080fd5b506108c7600480360381019080803590602001909291905050506123ef565b604051808215151515815260200191505060405180910390f35b3480156108ed57600080fd5b506108f6612876565b6040518082815260200191505060405180910390f35b34801561091857600080fd5b50610957600480360381019080803573ffffffffffffffffffffffffffffffffffffffff1690602001909291908035906020019092919050505061287c565b604051808215151515815260200191505060405180910390f35b34801561097d57600080fd5b50610986612b81565b604051808273ffffffffffffffffffffffffffffffffffffffff1673ffffffffffffffffffffffffffffffffffffffff16815260200191505060405180910390f35b3480156109d457600080fd5b50610a09600480360381019080803573ffffffffffffffffffffffffffffffffffffffff169060200190929190505050612ba7565b005b348015610a1757600080fd5b50610a20612cc4565b604051808215151515815260200191505060405180910390f35b348015610a4657600080fd5b50610abb600480360381019080803573ffffffffffffffffffffffffffffffffffffffff169060200190929190803573ffffffffffffffffffffffffffffffffffffffff169060200190929190803573ffffffffffffffffffffffffffffffffffffffff169060200190929190505050612d6f565b005b348015610ac957600080fd5b50610afe600480360381019080803573ffffffffffffffffffffffffffffffffffffffff1690602001909291905050506133d6565b005b348015610b0c57600080fd5b50610b156134d9565b6040518082815260200191505060405180910390f35b348015610b3757600080fd5b50610b406134df565b604051808273ffffffffffffffffffffffffffffffffffffffff1673ffffffffffffffffffffffffffffffffffffffff16815260200191505060405180910390f35b348015610b8e57600080fd5b50610bcd600480360381019080803573ffffffffffffffffffffffffffffffffffffffff16906020019092919080359060200190929190505050613505565b604051808215151515815260200191505060405180910390f35b348015610bf357600080fd5b50610bfc613695565b604051808273ffffffffffffffffffffffffffffffffffffffff1673ffffffffffffffffffffffffffffffffffffffff16815260200191505060405180910390f35b348015610c4a57600080fd5b50610c9f600480360381019080803573ffffffffffffffffffffffffffffffffffffffff169060200190929190803573ffffffffffffffffffffffffffffffffffffffff1690602001909291905050506136bb565b6040518082815260200191505060405180910390f35b348015610cc157600080fd5b50610cf6600480360381019080803573ffffffffffffffffffffffffffffffffffffffff169060200190929190505050613742565b005b348015610d0457600080fd5b50610d0d613845565b604051808273ffffffffffffffffffffffffffffffffffffffff1673ffffffffffffffffffffffffffffffffffffffff16815260200191505060405180910390f35b348015610d5b57600080fd5b50610d6461386b565b604051808273ffffffffffffffffffffffffffffffffffffffff1673ffffffffffffffffffffffffffffffffffffffff16815260200191505060405180910390f35b348015610db257600080fd5b50610dbb613891565b604051808273ffffffffffffffffffffffffffffffffffffffff1673ffffffffffffffffffffffffffffffffffffffff16815260200191505060405180910390f35b600460009054906101000a900473ffffffffffffffffffffffffffffffffffffffff1681565b60098054600181600116156101000203166002900480601f016020809104026020016040519081016040528092919081815260200182805460018160011615610100020316600290048015610eb95780601f10610e8e57610100808354040283529160200191610eb9565b820191906000526020600020905b815481529060010190602001808311610e9c57829003601f168201915b505050505081565b60008060149054906101000a900460ff1615610edc57600080fd5b81601360003373ffffffffffffffffffffffffffffffffffffffff1673ffffffffffffffffffffffffffffffffffffffff16815260200190815260200160002060008573ffffffffffffffffffffffffffffffffffffffff1673ffffffffffffffffffffffffffffffffffffffff168152602001908152602001600020819055508273ffffffffffffffffffffffffffffffffffffffff163373ffffffffffffffffffffffffffffffffffffffff167f8c5be1e5ebec7d5bd14f71427d1e84f3dd0314c0f7b2291e5b200ac8c7c3b925846040518082815260200191505060405180910390a36001905092915050565b6000601054905090565b600360009054906101000a900473ffffffffffffffffffffffffffffffffffffffff1681565b60008060149054906101000a900460ff161561101757600080fd5b601260008573ffffffffffffffffffffffffffffffffffffffff1673ffffffffffffffffffffffffffffffffffffffff16815260200190815260200160002054821115151561106557600080fd5b601360008573ffffffffffffffffffffffffffffffffffffffff1673ffffffffffffffffffffffffffffffffffffffff16815260200190815260200160002060003373ffffffffffffffffffffffffffffffffffffffff1673ffffffffffffffffffffffffffffffffffffffff1681526020019081526020016000205482111515156110f057600080fd5b600073ffffffffffffffffffffffffffffffffffffffff168373ffffffffffffffffffffffffffffffffffffffff161415151561112c57600080fd5b6000600f81111561113957fe5b6000809054906101000a900473ffffffffffffffffffffffffffffffffffffffff1673ffffffffffffffffffffffffffffffffffffffff1663b2e096248686866040518463ffffffff167c0100000000000000000000000000000000000000000000000000000000028152600401808473ffffffffffffffffffffffffffffffffffffffff1673ffffffffffffffffffffffffffffffffffffffff1681526020018373ffffffffffffffffffffffffffffffffffffffff1673ffffffffffffffffffffffffffffffffffffffff1681526020018281526020019350505050602060405180830381600087803b15801561123157600080fd5b505af1158015611245573d6000803e3d6000fd5b505050506040513d602081101561125b57600080fd5b8101908080519060200190929190505050600f81111561127757fe5b14151561128357600080fd5b81601260008673ffffffffffffffffffffffffffffffffffffffff1673ffffffffffffffffffffffffffffffffffffffff1681526020019081526020016000206000828254039250508190555081601260008573ffffffffffffffffffffffffffffffffffffffff1673ffffffffffffffffffffffffffffffffffffffff1681526020019081526020016000206000828254019250508190555081601360008673ffffffffffffffffffffffffffffffffffffffff1673ffffffffffffffffffffffffffffffffffffffff16815260200190815260200160002060003373ffffffffffffffffffffffffffffffffffffffff1673ffffffffffffffffffffffffffffffffffffffff168152602001908152602001600020600082825403925050819055508273ffffffffffffffffffffffffffffffffffffffff168473ffffffffffffffffffffffffffffffffffffffff167fddf252ad1be2c89b69c2b068fc378daa952ba7f163c4a11628f55a4df523b3ef846040518082815260200191505060405180910390a3600190509392505050565b600b60009054906101000a900460ff1681565b60105481565b600f5481565b600d5481565b6000600760009054906101000a900473ffffffffffffffffffffffffffffffffffffffff1673ffffffffffffffffffffffffffffffffffffffff163373ffffffffffffffffffffffffffffffffffffffff1614151561149a57600080fd5b601160019054906101000a900460ff1615156114b557600080fd5b600060149054906101000a900460ff16156114cf57600080fd5b60126000600760009054906101000a900473ffffffffffffffffffffffffffffffffffffffff1673ffffffffffffffffffffffffffffffffffffffff1673ffffffffffffffffffffffffffffffffffffffff16815260200190815260200160002054821115151561153f57600080fd5b8160126000600760009054906101000a900473ffffffffffffffffffffffffffffffffffffffff1673ffffffffffffffffffffffffffffffffffffffff1673ffffffffffffffffffffffffffffffffffffffff16815260200190815260200160002060008282540392505081905550816010600082825403925050819055506115c66138b7565b7fb90306ad06b2a6ff86ddc9327db583062895ef6540e62dc50add009db5b356eb826040518082815260200191505060405180910390a160019050919050565b6000600760009054906101000a900473ffffffffffffffffffffffffffffffffffffffff1673ffffffffffffffffffffffffffffffffffffffff163373ffffffffffffffffffffffffffffffffffffffff1614151561166457600080fd5b6001600060146101000a81548160ff0219169083151502179055507fab35696f06e428ebc5ceba8cd17f8fed287baf43440206d1943af1ee53e6d26760405160405180910390a16001905090565b6040805190810160405280600981526020017f546f6b656e20302e31000000000000000000000000000000000000000000000081525081565b600080600060149054906101000a900460ff161561170857600080fd5b601360003373ffffffffffffffffffffffffffffffffffffffff1673ffffffffffffffffffffffffffffffffffffffff16815260200190815260200160002060008573ffffffffffffffffffffffffffffffffffffffff1673ffffffffffffffffffffffffffffffffffffffff1681526020019081526020016000205490508083101515611817576000601360003373ffffffffffffffffffffffffffffffffffffffff1673ffffffffffffffffffffffffffffffffffffffff16815260200190815260200160002060008673ffffffffffffffffffffffffffffffffffffffff1673ffffffffffffffffffffffffffffffffffffffff168152602001908152602001600020819055506118a2565b82601360003373ffffffffffffffffffffffffffffffffffffffff1673ffffffffffffffffffffffffffffffffffffffff16815260200190815260200160002060008673ffffffffffffffffffffffffffffffffffffffff1673ffffffffffffffffffffffffffffffffffffffff168152602001908152602001600020600082825403925050819055505b8373ffffffffffffffffffffffffffffffffffffffff163373ffffffffffffffffffffffffffffffffffffffff167f8c5be1e5ebec7d5bd14f71427d1e84f3dd0314c0f7b2291e5b200ac8c7c3b925601360003373ffffffffffffffffffffffffffffffffffffffff1673ffffffffffffffffffffffffffffffffffffffff16815260200190815260200160002060008873ffffffffffffffffffffffffffffffffffffffff1673ffffffffffffffffffffffffffffffffffffffff168152602001908152602001600020546040518082815260200191505060405180910390a3600191505092915050565b6000600660009054906101000a900473ffffffffffffffffffffffffffffffffffffffff1673ffffffffffffffffffffffffffffffffffffffff163373ffffffffffffffffffffffffffffffffffffffff161415156119ec57600080fd5b60126000600760009054906101000a900473ffffffffffffffffffffffffffffffffffffffff1673ffffffffffffffffffffffffffffffffffffffff1673ffffffffffffffffffffffffffffffffffffffff16815260200190815260200160002054905080601260008473ffffffffffffffffffffffffffffffffffffffff1673ffffffffffffffffffffffffffffffffffffffff16815260200190815260200160002060008282540192505081905550600060126000600760009054906101000a900473ffffffffffffffffffffffffffffffffffffffff1673ffffffffffffffffffffffffffffffffffffffff1673ffffffffffffffffffffffffffffffffffffffff1681526020019081526020016000208190555081600760006101000a81548173ffffffffffffffffffffffffffffffffffffffff021916908373ffffffffffffffffffffffffffffffffffffffff1602179055507f6c4ee735d91eb64cf528f2559f654a4412ae2a4463b04998ae2fee3da23e497082604051808273ffffffffffffffffffffffffffffffffffffffff1673ffffffffffffffffffffffffffffffffffffffff16815260200191505060405180910390a18173ffffffffffffffffffffffffffffffffffffffff16600760009054906101000a900473ffffffffffffffffffffffffffffffffffffffff1673ffffffffffffffffffffffffffffffffffffffff167fddf252ad1be2c89b69c2b068fc378daa952ba7f163c4a11628f55a4df523b3ef601260008673ffffffffffffffffffffffffffffffffffffffff1673ffffffffffffffffffffffffffffffffffffffff168152602001908152602001600020546040518082815260200191505060405180910390a35050565b6000600760009054906101000a900473ffffffffffffffffffffffffffffffffffffffff1673ffffffffffffffffffffffffffffffffffffffff163373ffffffffffffffffffffffffffffffffffffffff16141515611cd057600080fd5b600060149054906101000a900460ff1615611cea57600080fd5b60126000600760009054906101000a900473ffffffffffffffffffffffffffffffffffffffff1673ffffffffffffffffffffffffffffffffffffffff1673ffffffffffffffffffffffffffffffffffffffff168152602001908152602001600020548211151515611d5a57600080fd5b81601260008573ffffffffffffffffffffffffffffffffffffffff1673ffffffffffffffffffffffffffffffffffffffff168152602001908152602001600020600082825401925050819055508160126000600760009054906101000a900473ffffffffffffffffffffffffffffffffffffffff1673ffffffffffffffffffffffffffffffffffffffff1673ffffffffffffffffffffffffffffffffffffffff168152602001908152602001600020600082825403925050819055508273ffffffffffffffffffffffffffffffffffffffff16600760009054906101000a900473ffffffffffffffffffffffffffffffffffffffff1673ffffffffffffffffffffffffffffffffffffffff167fddf252ad1be2c89b69c2b068fc378daa952ba7f163c4a11628f55a4df523b3ef846040518082815260200191505060405180910390a3611ea56138b7565b92915050565b6000601260008373ffffffffffffffffffffffffffffffffffffffff1673ffffffffffffffffffffffffffffffffffffffff168152602001908152602001600020549050919050565b6000600760009054906101000a900473ffffffffffffffffffffffffffffffffffffffff1673ffffffffffffffffffffffffffffffffffffffff163373ffffffffffffffffffffffffffffffffffffffff16141515611f5257600080fd5b600060149054906101000a900460ff1615611f6c57600080fd5b601260008373ffffffffffffffffffffffffffffffffffffffff1673ffffffffffffffffffffffffffffffffffffffff168152602001908152602001600020548311151515611fba57600080fd5b6000600f811115611fc757fe5b6000809054906101000a900473ffffffffffffffffffffffffffffffffffffffff1673ffffffffffffffffffffffffffffffffffffffff16635c746984846040518263ffffffff167c0100000000000000000000000000000000000000000000000000000000028152600401808273ffffffffffffffffffffffffffffffffffffffff1673ffffffffffffffffffffffffffffffffffffffff168152602001915050602060405180830381600087803b15801561208357600080fd5b505af1158015612097573d6000803e3d6000fd5b505050506040513d60208110156120ad57600080fd5b8101908080519060200190929190505050600f8111156120c957fe5b1415156120d557600080fd5b82601260008473ffffffffffffffffffffffffffffffffffffffff1673ffffffffffffffffffffffffffffffffffffffff168152602001908152602001600020600082825403925050819055508260126000600760009054906101000a900473ffffffffffffffffffffffffffffffffffffffff1673ffffffffffffffffffffffffffffffffffffffff1673ffffffffffffffffffffffffffffffffffffffff168152602001908152602001600020600082825401925050819055506121996138b7565b8173ffffffffffffffffffffffffffffffffffffffff167f9dfaf550a5acb22698abd94e7bfd33c175cb3093c6cd48d0466b13a43dacaf74846040518082815260200191505060405180910390a2600760009054906101000a900473ffffffffffffffffffffffffffffffffffffffff1673ffffffffffffffffffffffffffffffffffffffff168273ffffffffffffffffffffffffffffffffffffffff167fddf252ad1be2c89b69c2b068fc378daa952ba7f163c4a11628f55a4df523b3ef856040518082815260200191505060405180910390a36001905092915050565b6000600760009054906101000a900473ffffffffffffffffffffffffffffffffffffffff1673ffffffffffffffffffffffffffffffffffffffff163373ffffffffffffffffffffffffffffffffffffffff161415156122d657600080fd5b600060149054906101000a900460ff16156122f057600080fd5b6001601160006101000a81548160ff0219169083151502179055507fae5184fba832cb2b1f702aca6117b8d265eaf03ad33eb133f19dde0f5920fa0860405160405180910390a16001905090565b600060149054906101000a900460ff1681565b600a8054600181600116156101000203166002900480601f0160208091040260200160405190810160405280929190818152602001828054600181600116156101000203166002900480156123e75780601f106123bc576101008083540402835291602001916123e7565b820191906000526020600020905b8154815290600101906020018083116123ca57829003601f168201915b505050505081565b6000806000806000806000600760009054906101000a900473ffffffffffffffffffffffffffffffffffffffff1673ffffffffffffffffffffffffffffffffffffffff163373ffffffffffffffffffffffffffffffffffffffff1614151561245657600080fd5b600760009054906101000a900473ffffffffffffffffffffffffffffffffffffffff16955060011515601160009054906101000a900460ff1615151415151561249e57600080fd5b60011515600060149054906101000a900460ff161515141515156124c157600080fd5b600f5488111515156124d257600080fd5b87600e54019450600f5485111515156124ea57600080fd5b87600e6000828254019250508190555087601060008282540192505081905550600073ffffffffffffffffffffffffffffffffffffffff167f0f6798a560793a54c3bcfe86a93cde1e73087d944c0ea20544137d4121396885896040518082815260200191505060405180910390a260648881151561256557fe5b049350604f840292506005840291506010840290508260126000600760009054906101000a900473ffffffffffffffffffffffffffffffffffffffff1673ffffffffffffffffffffffffffffffffffffffff1673ffffffffffffffffffffffffffffffffffffffff16815260200190815260200160002060008282540192505081905550600760009054906101000a900473ffffffffffffffffffffffffffffffffffffffff1673ffffffffffffffffffffffffffffffffffffffff16600073ffffffffffffffffffffffffffffffffffffffff167fddf252ad1be2c89b69c2b068fc378daa952ba7f163c4a11628f55a4df523b3ef8a6040518082815260200191505060405180910390a38160126000600160009054906101000a900473ffffffffffffffffffffffffffffffffffffffff1673ffffffffffffffffffffffffffffffffffffffff1673ffffffffffffffffffffffffffffffffffffffff16815260200190815260200160002060008282540192505081905550600160009054906101000a900473ffffffffffffffffffffffffffffffffffffffff1673ffffffffffffffffffffffffffffffffffffffff16600073ffffffffffffffffffffffffffffffffffffffff167fddf252ad1be2c89b69c2b068fc378daa952ba7f163c4a11628f55a4df523b3ef846040518082815260200191505060405180910390a38060126000600560009054906101000a900473ffffffffffffffffffffffffffffffffffffffff1673ffffffffffffffffffffffffffffffffffffffff1673ffffffffffffffffffffffffffffffffffffffff16815260200190815260200160002060008282540192505081905550600560009054906101000a900473ffffffffffffffffffffffffffffffffffffffff1673ffffffffffffffffffffffffffffffffffffffff16600073ffffffffffffffffffffffffffffffffffffffff167fddf252ad1be2c89b69c2b068fc378daa952ba7f163c4a11628f55a4df523b3ef836040518082815260200191505060405180910390a36128676138b7565b60019650505050505050919050565b600e5481565b60008060149054906101000a900460ff161561289757600080fd5b601260003373ffffffffffffffffffffffffffffffffffffffff1673ffffffffffffffffffffffffffffffffffffffff1681526020019081526020016000205482111515156128e557600080fd5b600073ffffffffffffffffffffffffffffffffffffffff168373ffffffffffffffffffffffffffffffffffffffff161415151561292157600080fd5b6000600f81111561292e57fe5b6000809054906101000a900473ffffffffffffffffffffffffffffffffffffffff1673ffffffffffffffffffffffffffffffffffffffff1663b2e096243386866040518463ffffffff167c0100000000000000000000000000000000000000000000000000000000028152600401808473ffffffffffffffffffffffffffffffffffffffff1673ffffffffffffffffffffffffffffffffffffffff1681526020018373ffffffffffffffffffffffffffffffffffffffff1673ffffffffffffffffffffffffffffffffffffffff1681526020018281526020019350505050602060405180830381600087803b158015612a2657600080fd5b505af1158015612a3a573d6000803e3d6000fd5b505050506040513d6020811015612a5057600080fd5b8101908080519060200190929190505050600f811115612a6c57fe5b141515612a7857600080fd5b81601260003373ffffffffffffffffffffffffffffffffffffffff1673ffffffffffffffffffffffffffffffffffffffff1681526020019081526020016000206000828254039250508190555081601260008573ffffffffffffffffffffffffffffffffffffffff1673ffffffffffffffffffffffffffffffffffffffff168152602001908152602001600020600082825401925050819055508273ffffffffffffffffffffffffffffffffffffffff163373ffffffffffffffffffffffffffffffffffffffff167fddf252ad1be2c89b69c2b068fc378daa952ba7f163c4a11628f55a4df523b3ef846040518082815260200191505060405180910390a36001905092915050565b600660009054906101000a900473ffffffffffffffffffffffffffffffffffffffff1681565b600660009054906101000a900473ffffffffffffffffffffffffffffffffffffffff1673ffffffffffffffffffffffffffffffffffffffff163373ffffffffffffffffffffffffffffffffffffffff16141515612c0357600080fd5b600060149054906101000a900460ff161515612c1e57600080fd5b806000806101000a81548173ffffffffffffffffffffffffffffffffffffffff021916908373ffffffffffffffffffffffffffffffffffffffff1602179055507f057ed691b8721468fe9406aef03da190da569c44a32454d5702cdacf2e9f6e6181604051808273ffffffffffffffffffffffffffffffffffffffff1673ffffffffffffffffffffffffffffffffffffffff16815260200191505060405180910390a150565b6000600760009054906101000a900473ffffffffffffffffffffffffffffffffffffffff1673ffffffffffffffffffffffffffffffffffffffff163373ffffffffffffffffffffffffffffffffffffffff16141515612d2257600080fd5b60008060146101000a81548160ff0219169083151502179055507f0e5e3b3fb504c22cf5c42fa07d521225937514c654007e1f12646f89768d6f9460405160405180910390a16001905090565b6000600660009054906101000a900473ffffffffffffffffffffffffffffffffffffffff1673ffffffffffffffffffffffffffffffffffffffff163373ffffffffffffffffffffffffffffffffffffffff16141515612dcd57600080fd5b60008473ffffffffffffffffffffffffffffffffffffffff16141515612fce5760126000600360009054906101000a900473ffffffffffffffffffffffffffffffffffffffff1673ffffffffffffffffffffffffffffffffffffffff1673ffffffffffffffffffffffffffffffffffffffff16815260200190815260200160002054905080601260008673ffffffffffffffffffffffffffffffffffffffff1673ffffffffffffffffffffffffffffffffffffffff16815260200190815260200160002060008282540192505081905550600060126000600360009054906101000a900473ffffffffffffffffffffffffffffffffffffffff1673ffffffffffffffffffffffffffffffffffffffff1673ffffffffffffffffffffffffffffffffffffffff1681526020019081526020016000208190555083600360006101000a81548173ffffffffffffffffffffffffffffffffffffffff021916908373ffffffffffffffffffffffffffffffffffffffff1602179055508373ffffffffffffffffffffffffffffffffffffffff16600360009054906101000a900473ffffffffffffffffffffffffffffffffffffffff1673ffffffffffffffffffffffffffffffffffffffff167fddf252ad1be2c89b69c2b068fc378daa952ba7f163c4a11628f55a4df523b3ef836040518082815260200191505060405180910390a35b60008373ffffffffffffffffffffffffffffffffffffffff161415156131cf5760126000600160009054906101000a900473ffffffffffffffffffffffffffffffffffffffff1673ffffffffffffffffffffffffffffffffffffffff1673ffffffffffffffffffffffffffffffffffffffff16815260200190815260200160002054905080601260008573ffffffffffffffffffffffffffffffffffffffff1673ffffffffffffffffffffffffffffffffffffffff16815260200190815260200160002060008282540192505081905550600060126000600160009054906101000a900473ffffffffffffffffffffffffffffffffffffffff1673ffffffffffffffffffffffffffffffffffffffff1673ffffffffffffffffffffffffffffffffffffffff1681526020019081526020016000208190555082600160006101000a81548173ffffffffffffffffffffffffffffffffffffffff021916908373ffffffffffffffffffffffffffffffffffffffff1602179055508173ffffffffffffffffffffffffffffffffffffffff16600160009054906101000a900473ffffffffffffffffffffffffffffffffffffffff1673ffffffffffffffffffffffffffffffffffffffff167fddf252ad1be2c89b69c2b068fc378daa952ba7f163c4a11628f55a4df523b3ef836040518082815260200191505060405180910390a35b60008273ffffffffffffffffffffffffffffffffffffffff161415156133d05760126000600560009054906101000a900473ffffffffffffffffffffffffffffffffffffffff1673ffffffffffffffffffffffffffffffffffffffff1673ffffffffffffffffffffffffffffffffffffffff16815260200190815260200160002054905080601260008473ffffffffffffffffffffffffffffffffffffffff1673ffffffffffffffffffffffffffffffffffffffff16815260200190815260200160002060008282540192505081905550600060126000600560009054906101000a900473ffffffffffffffffffffffffffffffffffffffff1673ffffffffffffffffffffffffffffffffffffffff1673ffffffffffffffffffffffffffffffffffffffff1681526020019081526020016000208190555081600560006101000a81548173ffffffffffffffffffffffffffffffffffffffff021916908373ffffffffffffffffffffffffffffffffffffffff1602179055508173ffffffffffffffffffffffffffffffffffffffff16600560009054906101000a900473ffffffffffffffffffffffffffffffffffffffff1673ffffffffffffffffffffffffffffffffffffffff167fddf252ad1be2c89b69c2b068fc378daa952ba7f163c4a11628f55a4df523b3ef836040518082815260200191505060405180910390a35b50505050565b600660009054906101000a900473ffffffffffffffffffffffffffffffffffffffff1673ffffffffffffffffffffffffffffffffffffffff163373ffffffffffffffffffffffffffffffffffffffff1614151561343257600080fd5b80600660006101000a81548173ffffffffffffffffffffffffffffffffffffffff021916908373ffffffffffffffffffffffffffffffffffffffff1602179055507fedc689301c35ea56dc0493eda6c21469bd3c78de724c148096afcaadc82a18dd81604051808273ffffffffffffffffffffffffffffffffffffffff1673ffffffffffffffffffffffffffffffffffffffff16815260200191505060405180910390a150565b600c5481565b600260009054906101000a900473ffffffffffffffffffffffffffffffffffffffff1681565b60008060149054906101000a900460ff161561352057600080fd5b81601360003373ffffffffffffffffffffffffffffffffffffffff1673ffffffffffffffffffffffffffffffffffffffff16815260200190815260200160002060008573ffffffffffffffffffffffffffffffffffffffff1673ffffffffffffffffffffffffffffffffffffffff168152602001908152602001600020600082825401925050819055508273ffffffffffffffffffffffffffffffffffffffff163373ffffffffffffffffffffffffffffffffffffffff167f8c5be1e5ebec7d5bd14f71427d1e84f3dd0314c0f7b2291e5b200ac8c7c3b925601360003373ffffffffffffffffffffffffffffffffffffffff1673ffffffffffffffffffffffffffffffffffffffff16815260200190815260200160002060008773ffffffffffffffffffffffffffffffffffffffff1673ffffffffffffffffffffffffffffffffffffffff168152602001908152602001600020546040518082815260200191505060405180910390a36001905092915050565b600560009054906101000a900473ffffffffffffffffffffffffffffffffffffffff1681565b6000601360008473ffffffffffffffffffffffffffffffffffffffff1673ffffffffffffffffffffffffffffffffffffffff16815260200190815260200160002060008373ffffffffffffffffffffffffffffffffffffffff1673ffffffffffffffffffffffffffffffffffffffff16815260200190815260200160002054905092915050565b600760009054906101000a900473ffffffffffffffffffffffffffffffffffffffff1673ffffffffffffffffffffffffffffffffffffffff163373ffffffffffffffffffffffffffffffffffffffff1614151561379e57600080fd5b80600860006101000a81548173ffffffffffffffffffffffffffffffffffffffff021916908373ffffffffffffffffffffffffffffffffffffffff1602179055507f96267f1015feb81a4219994fa03a3dfdb5f86649fb0f351e154d1ddf1d9bb99081604051808273ffffffffffffffffffffffffffffffffffffffff1673ffffffffffffffffffffffffffffffffffffffff16815260200191505060405180910390a150565b600160009054906101000a900473ffffffffffffffffffffffffffffffffffffffff1681565b600860009054906101000a900473ffffffffffffffffffffffffffffffffffffffff1681565b600760009054906101000a900473ffffffffffffffffffffffffffffffffffffffff1681565b60126000600760009054906101000a900473ffffffffffffffffffffffffffffffffffffffff1673ffffffffffffffffffffffffffffffffffffffff1673ffffffffffffffffffffffffffffffffffffffff1681526020019081526020016000205460105403600c819055507fe06830e356ba57435194a3a2cd2e891be4eb8c2c5cd591ae229a0c1b28af6983601054600c54604051808381526020018281526020019250505060405180910390a15600a165627a7a72305820bac041a5ceff014ed71fe10176b77d73cb24211e9388875c12b968515e9f31a70029",
  "source": "pragma solidity ^0.4.24;\n\n/**\n * \n * Aziza CHECKER Interface Smart Contract\n * \n */\n\n\ncontract AzizaChecker { \n\n\n    enum checkReasonCode {\n        OK, \n        FAILED_FROM_ACCT_NOT_REGISTERED,\n        FAILED_FROM_ACCT_LOCKED, \n        FAILED_FROM_ACCT_FROZEN, \n        FAILED_FROM_ACCT_CONFISCATED,\n        FAILED_TO_ACCT_NOT_REGISTERED,\n        FAILED_TO_ACCT_LOCKED,\n        FAILED_TO_ACCT_FROZEN,\n        FAILED_TO_ACCT_CONFISCATED,\n        FAILED_ACCT_NOT_CONFISCATED,\n        FAILED_FROM_ACCT_VESTING,\n        FAILED_TO_ACCT_VESTING,\n        FAILED_NON_USA_ACCOUNT,\n        FAILED_CONTRACT_PAUSED,\n        FAILED_CONTRACT_CLOSED,\n        FAILED_NIL_VALUE\n    }\n\n\n\n\n    function check(address _from, address _to, uint256 _amount)  external view returns (checkReasonCode reason) {\n            \n\n            return checkReasonCode.OK;\n\n    }\n\n\n\n\n\n    function checkConfiscationAllowed(address _from)  external view returns (checkReasonCode reason) {\n            \n\n            return checkReasonCode.OK;\n\n    }\n\n\n\n} /* end of AzizaChecker contract */\n\n\npragma solidity ^0.4.24;\n\n/**\n * \n * Aziza LEDGER Smart Contract\n * \n */\n\n\n\ncontract AzizaLedger { \n\n\n  \n    /**\n     * Modifiers\n     * \n     */\n    modifier onlySuperUser {\n        if (msg.sender != superUser) revert();\n        _;\n    }\n    \n    \n    modifier onlyTreasurer {\n        if (msg.sender != treasurer) revert();\n        _;\n    }\n\n\n    modifier onlyAdmin {\n        if (msg.sender != admin ) revert();\n        _;\n    }\n\n     \n    modifier paused {\n        if (!contractPaused) revert();\n        _;\n    }\n    \n    modifier notPaused {\n        if (contractPaused) revert();\n        _;\n    }\n    \n    \n    modifier mintingIsAllowed {\n        if (mintingFinished) revert();\n        \n        _;\n    }\n\n    modifier canBurn {\n        require(burningAllowed);\n        \n        _;\n    }\n\n\n    /**\n     * \n     * DATA\n     * \n     */\n\n\n    /* checker contract */\n\n    AzizaChecker checkerContract;\n    \n    \n\n\n    // contract state \n    bool public contractPaused;\n    \n    // account addresses\n    // reserved token holder accounts\n    address public developerAccount;        \n    address public teamAccount;\n    address public foundationAccount;\n    address public aneAccount;\n    address public reserveAccount;\n    // admin accounts\n    address public superUser;        \n    address public treasurer;                \n    address public admin;\n\n    // Public variables of the contract\n    // Public variables of the coinToken\n    string public constant standard = \"Token 0.1\";\n    string public  name;\n    string public  symbol;\n    uint8 public  decimals;\n    //uint256 public totalSupply;\n    uint256 public totalTokensInCirculation; \n    uint256 public initialSupply; // 0\n    uint256 public totalMinted;\n    uint256 public cap;\n    \n    uint256 public totalSupply_;\n    \n\n\n\n    bool mintingFinished;\n    bool burningAllowed;\n\n\n    mapping(address => uint256) balances;\n    mapping (address => mapping (address => uint256)) internal allowed;\n\n\n\n     /**\n     * \n     * EVENTS \n     * \n     */   \n\n    event ContractPaused();\n    event ContractUnpaused();\n    event NewCheckerContractAddress (address newCheckerContract);\n\n    event Burn(uint256 numberBurnt);\n    event Confiscated(address indexed acct, uint256 numberConfiscated);\n\n    event Mint(address indexed to, uint256 amount);\n    event MintFinished();\n    \n\n    // ERC20 events\n    event Transfer(address indexed from, address indexed to, uint256 value);\n    event Approval(address indexed owner, address indexed spender, uint256 value);\n\n    event TokenSupply(uint256 totalTokenSupply, uint256 totalTokenInCirculation );\n\n    event NewTreasurerAccount(address newTreasurer);\n    event NewSuperUserAccount(address superUser);\n    event NewAdminAccount(address newAdmin);\n\n\n\n    /**\n    \n    \n     */\n\n\n\n\n    /**\n     * @dev Function to mint tokens\n     * @param _amount The amount of tokens to mint.\n     * @return A boolean that indicates if the operation was successful.\n     * 79% of  minted coins go to Treasurer\n     * 21% of minted coins go to reserved accounts\n     */\n    //function mint(  uint256 _amount  )    public    onlyTreasurer  notPaused returns (bool)\n    function mint(  uint256 _amount  )    public    onlyTreasurer returns (bool)\n    {\n        address _to;\n        _to = treasurer; \n        uint256 _totalMinted;\n        uint256 _onePercent;\n        uint256 _treasurerAmount;\n        uint256 _developerAmount;        \n        uint256 _reserveAmount;\n\n    require(mintingFinished != true );\n    require(contractPaused != true );\n        require(_amount <= cap);\n        \n    _totalMinted = totalMinted + _amount;\n        require(_totalMinted <= cap);\n\n\n\n        totalMinted += _amount;\n        totalSupply_ += _amount;\n\n        emit Mint(address(0), _amount);\n        _onePercent = _amount/100;\n\n        /* mint sends 79% of tokens to Treasurer */\n\n        _treasurerAmount = _onePercent * 79;\n        \n\n        /* 5% to Developer */\n        _developerAmount = _onePercent * 5;\n       \n\n        /* 16% to reserve */\n        _reserveAmount = _onePercent * 16;\n\n\n        balances[treasurer] += _treasurerAmount;\n        emit Transfer(address(0), treasurer, _amount);\n\n        balances[developerAccount] += _developerAmount;\n        emit Transfer(address(0), developerAccount, _developerAmount);\n\n        balances[reserveAccount] += _reserveAmount;\n        emit Transfer(address(0), reserveAccount, _reserveAmount);\n\n        _setTotalTokensInCirculation ();\n\n\n        return true;\n    }\n\n\n\n    /**\n     * @dev Function to stop minting new tokens.\n     * @return True if the operation was successful.\n     */\n    function finishMinting() public onlyTreasurer  notPaused returns (bool) \n    {\n        mintingFinished = true;\n        emit MintFinished();\n        return true;\n    }\n\n\n\n    /**\n     * @dev Function to burn tokens\n     * @return True if the operation was successful\n     * Only treasurer can burn, and only the treasures own tokens\n     */\n\n    function burn(uint256 _amountToBurn)public onlyTreasurer canBurn  notPaused returns (bool) \n    {\n        require( _amountToBurn <=  balances[treasurer]);\n\n        balances[treasurer] -= _amountToBurn;\n\n        totalSupply_ -= _amountToBurn;\n\n        _setTotalTokensInCirculation ();\n\n        emit Burn(_amountToBurn);\n        return true;\n    }\n\n    /**\n     * @dev Function to confiscate tokens\n     * @return True if the operation was successful\n     * Only treasurer can confiscate tokens\n     */\n\n    function confiscate(uint256 _amountToConfiscate, address _from) public onlyTreasurer notPaused returns (bool) \n    {\n        require( _amountToConfiscate <=  balances[_from]);\n        \n        if ( checkerContract.checkConfiscationAllowed(_from) != AzizaChecker.checkReasonCode.OK) revert();\n    \n        balances[_from] -= _amountToConfiscate;\n        balances[treasurer] += _amountToConfiscate;\n    \n        _setTotalTokensInCirculation ();\n    \n        emit Confiscated(_from, _amountToConfiscate);\n        emit Transfer(_from, treasurer, _amountToConfiscate);\n    \n        return true;\n    }\n\n\n    // Record total tokens in circulation\n\n    function _setTotalTokensInCirculation () internal {\n        totalTokensInCirculation = totalSupply_ - balances[treasurer];\n        emit TokenSupply(totalSupply_, totalTokensInCirculation );\n    }\n\n    /**\n     * function treasurerTransfer allows the Treasurer to transfer token balances to any account with out any checks \n     * \n     */\n    function treasurerTransfer(address _to, uint256 _value) public onlyTreasurer notPaused returns (bool) {\n        require(_value <= balances[treasurer]);\n        balances[_to] += _value;\n        balances[treasurer] -= _value;\n\n        emit Transfer( treasurer, _to, _value);\n        _setTotalTokensInCirculation ();\n\n\n\n    }\n\n\n    /**\n     * @dev Total number of tokens in existence\n     */\n    function totalSupply() public view returns (uint256) {\n        return totalSupply_;\n    }\n\n    /**\n     * @dev Gets the balance of the specified address.\n     * @param _owner The address to query the the balance of.\n     * @return An uint256 representing the amount owned by the passed address.\n     */\n    function balanceOf(address _owner) public view returns (uint256) {\n        return balances[_owner];\n    }\n\n    /**\n     * @dev Function to check the amount of tokens that an owner allowed to a spender.\n     * @param _owner address The address which owns the funds.\n     * @param _spender address The address which will spend the funds.\n     * @return A uint256 specifying the amount of tokens still available for the spender.\n     */\n    function allowance( address _owner, address _spender  )    public    view    returns (uint256)     {\n        return allowed[_owner][_spender];\n    }\n\n    /**\n     * @dev Transfer token for a specified address\n     * @param _to The address to transfer to.\n     * @param _value The amount to be transferred.\n     */\n    function transfer(address _to, uint256 _value) public notPaused returns (bool) {\n        require(_value <= balances[msg.sender]);\n        require(_to != address(0));\n\n        require (checkerContract.check(msg.sender, _to, _value) == AzizaChecker.checkReasonCode.OK);\n\n\n        balances[msg.sender] -= _value;\n        balances[_to] += _value;\n        emit Transfer(msg.sender, _to, _value);\n        return true;\n    }\n\n    /**\n     * @dev Approve the passed address to spend the specified amount of tokens on behalf of msg.sender.\n     * Beware that changing an allowance with this method brings the risk that someone may use both the old\n     * and the new allowance by unfortunate transaction ordering. One possible solution to mitigate this\n     * race condition is to first reduce the spender's allowance to 0 and set the desired value afterwards:\n     * https://github.com/ethereum/EIPs/issues/20#issuecomment-263524729\n     * @param _spender The address which will spend the funds.\n     * @param _value The amount of tokens to be spent.\n     */\n    function approve(address _spender, uint256 _value) public notPaused returns (bool) {\n        allowed[msg.sender][_spender] = _value;\n        emit Approval(msg.sender, _spender, _value);\n        return true;\n    }\n\n    /**\n     * @dev Transfer tokens from one address to another\n     * @param _from address The address which you want to send tokens from\n     * @param _to address The address which you want to transfer to\n     * @param _value uint256 the amount of tokens to be transferred\n     */\n    function transferFrom(     address _from,    address _to,    uint256 _value  )    public  notPaused  returns (bool)  {\n        require(_value <= balances[_from]);\n        require(_value <= allowed[_from][msg.sender]);\n        require(_to != address(0));\n\n        require (checkerContract.check(_from, _to, _value) == AzizaChecker.checkReasonCode.OK);\n\n        balances[_from] -= _value;\n        balances[_to] += _value;\n        allowed[_from][msg.sender] -= _value;\n        emit Transfer(_from, _to, _value);\n        return true;\n    }\n\n    /**\n     * @dev Increase the amount of tokens that an owner allowed to a spender.\n     * approve should be called when allowed[_spender] == 0. To increment\n     * allowed value is better to use this function to avoid 2 calls (and wait until\n     * the first transaction is mined)\n     * From MonolithDAO Token.sol\n     * @param _spender The address which will spend the funds.\n     * @param _addedValue The amount of tokens to increase the allowance by.\n     */\n    function increaseApproval(    address _spender,    uint256 _addedValue  )    public  notPaused  returns (bool)\n    {\n        allowed[msg.sender][_spender] += _addedValue;\n        \n        emit Approval(msg.sender, _spender, allowed[msg.sender][_spender]);\n        return true;\n    }\n\n    /**\n     * @dev Decrease the amount of tokens that an owner allowed to a spender.\n     * approve should be called when allowed[_spender] == 0. To decrement\n     * allowed value is better to use this function to avoid 2 calls (and wait until\n     * the first transaction is mined)\n     * From MonolithDAO Token.sol\n     * @param _spender The address which will spend the funds.\n     * @param _subtractedValue The amount of tokens to decrease the allowance by.\n     */\n    function decreaseApproval(    address _spender,    uint256 _subtractedValue  )    public   notPaused returns (bool)  {\n        uint256 oldValue = allowed[msg.sender][_spender];\n\n        if (_subtractedValue >= oldValue) {\n            allowed[msg.sender][_spender] = 0;\n        } else {\n            allowed[msg.sender][_spender] -= _subtractedValue;\n        }\n        emit Approval(msg.sender, _spender, allowed[msg.sender][_spender]);\n        return true;\n    }\n\n    \n    /**\n     * \n     * Contract admin functions\n     * \n     */\n\n    // super user functions\n    // change super user\n    function superUserTransferSuperUser(address _superUser) external onlySuperUser {\n        superUser = _superUser;\n        emit NewSuperUserAccount(_superUser);\n    }  \n\n    //  Change contract management account - also transafers treasurer balance\n    function superUserTransferTreasurership(address _newTreasurer) external  onlySuperUser {\n        uint256 _xferAmount;\n        \n        _xferAmount = balances[treasurer];\n        \n        balances[_newTreasurer] += _xferAmount;\n\n        balances[treasurer] = 0;\n        treasurer = _newTreasurer;\n        // record transfer\n        emit NewTreasurerAccount(_newTreasurer);\n        emit Transfer(treasurer, _newTreasurer, balances[_newTreasurer]);\n    }  \n\n    // change Foundation accounts, this function transfers balances of tokens from old to new accounts\n    function superUserResetContractAccounts(address _NewFoundationAccount, address _newDeveloperAccount, address _NewReserveAccount)  external onlySuperUser {\n        uint256 _xferAmount;\n        if (_NewFoundationAccount != 0) {\n            _xferAmount = balances[foundationAccount];\n            balances[_NewFoundationAccount] += _xferAmount;\n            balances[foundationAccount] = 0;        \n            foundationAccount = _NewFoundationAccount;\n            // record transfer\n            emit Transfer(foundationAccount, _NewFoundationAccount, _xferAmount);            \n        }\n        if (_newDeveloperAccount != 0) {\n            _xferAmount = balances[developerAccount];\n            balances[_newDeveloperAccount] += _xferAmount;\n            balances[developerAccount] = 0;\n            developerAccount = _newDeveloperAccount;\n            // record transfer\n            emit Transfer(developerAccount, _NewReserveAccount, _xferAmount);\n        }\n        if (_NewReserveAccount != 0) {\n            _xferAmount = balances[reserveAccount];\n            balances[_NewReserveAccount] += _xferAmount;\n            balances[reserveAccount] = 0;\n            reserveAccount = _NewReserveAccount;\n            // record transfer\n            emit Transfer(reserveAccount, _NewReserveAccount, _xferAmount);\n        }\n    }\n\n\n\n\n    // Treasurer functions \n\n    // change admin account\n    function treasurerChangeAdminAccount(address _newAdmin ) external  onlyTreasurer {\n\n        admin = _newAdmin;\n        emit NewAdminAccount(_newAdmin);\n\n    }  \n\n\n\n\n    // Contract State functions\n\n\n\n    function pauseContract ()  external onlyTreasurer   returns (bool success){\n\n        contractPaused = true;\n        // log change of state\n        emit ContractPaused();\n        return true;\n    }\n    function unPauseContract () external  onlyTreasurer   returns (bool success){\n\n        contractPaused = false;\n        // log change of state\n        emit ContractUnpaused();\n        return true;\n    }\n    /**\n    change checkerContract address\n     */\n\n    function changeCheckerContractAddress(address _checkerContract) public onlySuperUser paused {\n                \n                checkerContract = AzizaChecker(_checkerContract);\n                emit NewCheckerContractAddress (_checkerContract);\n\n    }\n\n    /**\n        Constructor\n    */\n\n    constructor ( address _reserveAccount, \n        address _developerAccount,    \n        address _foundationAccount, \n        address _checkerContract,\n        string _tokenName,\n        string _tokenSymbol ) public        {\n   \n   \n        initialSupply = 0; // \n        cap = 100000000000000000; // 10 ** 17\n        totalMinted = 0;\n        totalSupply_ = 0; \n        decimals = 8;\n        // set up superUers, admin and treasurer accounts\n        superUser = msg.sender;\n        treasurer = msg.sender;\n        admin = msg.sender;\n        \n\n        \n        // make sure treasurer is not team or fees or Foundation\n        if (msg.sender == _reserveAccount) revert();\n        if (msg.sender == _developerAccount) revert();\n        if (msg.sender == _foundationAccount) revert();\n\n    \n\n\n        \n        // set up beniciary addresses\n        reserveAccount = _reserveAccount;\n        developerAccount = _developerAccount;\n        foundationAccount = _foundationAccount;\n        // set up token parameters\n\n        name = _tokenName;                      \n        symbol = _tokenSymbol;                  \n        decimals = 8;                            \n        \n\n\n        // Contract not paused, minting allowed, burning allowed\n        contractPaused = false; \n        mintingFinished = false;\n        burningAllowed = true;\n\n        emit ContractUnpaused();\n        \n\n        \n    \n        \n        // Set  total supply\n        // Update total supply        \n        _setTotalTokensInCirculation();\n\n        /* set up checker contract */\n \n        checkerContract = AzizaChecker(_checkerContract);\n\n    } /* end of constructor */\n\n\n\n\n\n\n\n\n\n} /* End of AzizaLedger contract*/\n",
  "sourcePath": "/home/charles/charles@aziza.io/AzizaICO/0000_NewContract/truffle/AzizaDual/contracts/AzizaLedger.sol",
  "compiler": {
    "name": "solc",
    "version": "0.4.24+commit.e67f0147.Emscripten.clang"
  },
  "schemaVersion": "2.0.1",
  "updatedAt": "2018-09-24T11:43:38.771Z"
}