{
  "contractName": "AzizaChecker",
  "abi": [
    {
      "constant": true,
      "inputs": [
        {
          "name": "_from",
          "type": "address"
        },
        {
          "name": "_to",
          "type": "address"
        },
        {
          "name": "_amount",
          "type": "uint256"
        }
      ],
      "name": "check",
      "outputs": [
        {
          "name": "reason",
          "type": "uint8"
        }
      ],
      "payable": false,
      "stateMutability": "view",
      "type": "function"
    },
    {
      "constant": true,
      "inputs": [
        {
          "name": "_from",
          "type": "address"
        }
      ],
      "name": "checkConfiscationAllowed",
      "outputs": [
        {
          "name": "reason",
          "type": "uint8"
        }
      ],
      "payable": false,
      "stateMutability": "view",
      "type": "function"
    }
  ],
  "bytecode": "0x608060405234801561001057600080fd5b50610187806100206000396000f30060806040526004361061004c576000357c0100000000000000000000000000000000000000000000000000000000900463ffffffff1680635c74698414610051578063b2e09624146100b6575b600080fd5b34801561005d57600080fd5b50610092600480360381019080803573ffffffffffffffffffffffffffffffffffffffff169060200190929190505050610145565b6040518082600f8111156100a257fe5b60ff16815260200191505060405180910390f35b3480156100c257600080fd5b50610121600480360381019080803573ffffffffffffffffffffffffffffffffffffffff169060200190929190803573ffffffffffffffffffffffffffffffffffffffff1690602001909291908035906020019092919050505061014f565b6040518082600f81111561013157fe5b60ff16815260200191505060405180910390f35b6000809050919050565b600080905093925050505600a165627a7a72305820e893dcd431e1f5443470cf27cedd5ffc5749fa74617d8135d27f6ccd22e00eea0029",
  "source": "pragma solidity ^0.4.24;\n\n/**\n * \n * Aziza CHECKER Interface Smart Contract\n * \n */\n\n\ncontract AzizaChecker { \n\n\n    enum checkReasonCode {\n        OK, \n        FAILED_FROM_ACCT_NOT_REGISTERED,\n        FAILED_FROM_ACCT_LOCKED, \n        FAILED_FROM_ACCT_FROZEN, \n        FAILED_FROM_ACCT_CONFISCATED,\n        FAILED_TO_ACCT_NOT_REGISTERED,\n        FAILED_TO_ACCT_LOCKED,\n        FAILED_TO_ACCT_FROZEN,\n        FAILED_TO_ACCT_CONFISCATED,\n        FAILED_ACCT_NOT_CONFISCATED,\n        FAILED_FROM_ACCT_VESTING,\n        FAILED_TO_ACCT_VESTING,\n        FAILED_NON_USA_ACCOUNT,\n        FAILED_CONTRACT_PAUSED,\n        FAILED_CONTRACT_CLOSED,\n        FAILED_NIL_VALUE\n    }\n\n\n\n\n    function check(address _from, address _to, uint256 _amount)  external view returns (checkReasonCode reason) {\n            \n\n            return checkReasonCode.OK;\n\n    }\n\n\n\n\n\n    function checkConfiscationAllowed(address _from)  external view returns (checkReasonCode reason) {\n            \n\n            return checkReasonCode.OK;\n\n    }\n\n\n\n} /* end of AzizaChecker contract */\n\n\npragma solidity ^0.4.24;\n\n/**\n * \n * Aziza LEDGER Smart Contract\n * \n */\n\n\n\ncontract AzizaLedger { \n\n\n  \n    /**\n     * Modifiers\n     * \n     */\n    modifier onlySuperUser {\n        if (msg.sender != superUser) revert();\n        _;\n    }\n    \n    \n    modifier onlyTreasurer {\n        if (msg.sender != treasurer) revert();\n        _;\n    }\n\n\n    modifier onlyAdmin {\n        if (msg.sender != admin ) revert();\n        _;\n    }\n\n     \n    modifier paused {\n        if (!contractPaused) revert();\n        _;\n    }\n    \n    modifier notPaused {\n        if (contractPaused) revert();\n        _;\n    }\n    \n    \n    modifier mintingIsAllowed {\n        if (mintingFinished) revert();\n        \n        _;\n    }\n\n    modifier canBurn {\n        require(burningAllowed);\n        \n        _;\n    }\n\n\n    /**\n     * \n     * DATA\n     * \n     */\n\n\n    /* checker contract */\n\n    AzizaChecker checkerContract;\n    \n    \n\n\n    // contract state \n    bool public contractPaused;\n    \n    // account addresses\n    // reserved token holder accounts\n    address public developerAccount;        \n    address public teamAccount;\n    address public foundationAccount;\n    address public aneAccount;\n    address public reserveAccount;\n    // admin accounts\n    address public superUser;        \n    address public treasurer;                \n    address public admin;\n\n    // Public variables of the contract\n    // Public variables of the coinToken\n    string public constant standard = \"Token 0.1\";\n    string public  name;\n    string public  symbol;\n    uint8 public  decimals;\n    //uint256 public totalSupply;\n    uint256 public totalTokensInCirculation; \n    uint256 public initialSupply; // 0\n    uint256 public totalMinted;\n    uint256 public cap;\n    \n    uint256 public totalSupply_;\n    \n\n\n\n    bool mintingFinished;\n    bool burningAllowed;\n\n\n    mapping(address => uint256) balances;\n    mapping (address => mapping (address => uint256)) internal allowed;\n\n\n\n     /**\n     * \n     * EVENTS \n     * \n     */   \n\n    event ContractPaused();\n    event ContractUnpaused();\n    event NewCheckerContractAddress (address newCheckerContract);\n\n    event Burn(uint256 numberBurnt);\n    event Confiscated(address indexed acct, uint256 numberConfiscated);\n\n    event Mint(address indexed to, uint256 amount);\n    event MintFinished();\n    \n\n    // ERC20 events\n    event Transfer(address indexed from, address indexed to, uint256 value);\n    event Approval(address indexed owner, address indexed spender, uint256 value);\n\n    event TokenSupply(uint256 totalTokenSupply, uint256 totalTokenInCirculation );\n\n    event NewTreasurerAccount(address newTreasurer);\n    event NewSuperUserAccount(address superUser);\n    event NewAdminAccount(address newAdmin);\n\n\n\n    /**\n    \n    \n     */\n\n\n\n\n    /**\n     * @dev Function to mint tokens\n     * @param _amount The amount of tokens to mint.\n     * @return A boolean that indicates if the operation was successful.\n     * 79% of  minted coins go to Treasurer\n     * 21% of minted coins go to reserved accounts\n     */\n    //function mint(  uint256 _amount  )    public    onlyTreasurer  notPaused returns (bool)\n    function mint(  uint256 _amount  )    public    onlyTreasurer returns (bool)\n    {\n        address _to;\n        _to = treasurer; \n        uint256 _totalMinted;\n        uint256 _onePercent;\n        uint256 _treasurerAmount;\n        uint256 _developerAmount;        \n        uint256 _reserveAmount;\n\n    require(mintingFinished != true );\n    require(contractPaused != true );\n        require(_amount <= cap);\n        \n    _totalMinted = totalMinted + _amount;\n        require(_totalMinted <= cap);\n\n\n\n        totalMinted += _amount;\n        totalSupply_ += _amount;\n\n        emit Mint(address(0), _amount);\n        _onePercent = _amount/100;\n\n        /* mint sends 79% of tokens to Treasurer */\n\n        _treasurerAmount = _onePercent * 79;\n        \n\n        /* 5% to Developer */\n        _developerAmount = _onePercent * 5;\n       \n\n        /* 16% to reserve */\n        _reserveAmount = _onePercent * 16;\n\n\n        balances[treasurer] += _treasurerAmount;\n        emit Transfer(address(0), treasurer, _amount);\n\n        balances[developerAccount] += _developerAmount;\n        emit Transfer(address(0), developerAccount, _developerAmount);\n\n        balances[reserveAccount] += _reserveAmount;\n        emit Transfer(address(0), reserveAccount, _reserveAmount);\n\n        _setTotalTokensInCirculation ();\n\n\n        return true;\n    }\n\n\n\n    /**\n     * @dev Function to stop minting new tokens.\n     * @return True if the operation was successful.\n     */\n    function finishMinting() public onlyTreasurer  notPaused returns (bool) \n    {\n        mintingFinished = true;\n        emit MintFinished();\n        return true;\n    }\n\n\n\n    /**\n     * @dev Function to burn tokens\n     * @return True if the operation was successful\n     * Only treasurer can burn, and only the treasures own tokens\n     */\n\n    function burn(uint256 _amountToBurn)public onlyTreasurer canBurn  notPaused returns (bool) \n    {\n        require( _amountToBurn <=  balances[treasurer]);\n\n        balances[treasurer] -= _amountToBurn;\n\n        totalSupply_ -= _amountToBurn;\n\n        _setTotalTokensInCirculation ();\n\n        emit Burn(_amountToBurn);\n        return true;\n    }\n\n    /**\n     * @dev Function to confiscate tokens\n     * @return True if the operation was successful\n     * Only treasurer can confiscate tokens\n     */\n\n    function confiscate(uint256 _amountToConfiscate, address _from) public onlyTreasurer notPaused returns (bool) \n    {\n        require( _amountToConfiscate <=  balances[_from]);\n        \n        if ( checkerContract.checkConfiscationAllowed(_from) != AzizaChecker.checkReasonCode.OK) revert();\n    \n        balances[_from] -= _amountToConfiscate;\n        balances[treasurer] += _amountToConfiscate;\n    \n        _setTotalTokensInCirculation ();\n    \n        emit Confiscated(_from, _amountToConfiscate);\n        emit Transfer(_from, treasurer, _amountToConfiscate);\n    \n        return true;\n    }\n\n\n    // Record total tokens in circulation\n\n    function _setTotalTokensInCirculation () internal {\n        totalTokensInCirculation = totalSupply_ - balances[treasurer];\n        emit TokenSupply(totalSupply_, totalTokensInCirculation );\n    }\n\n    /**\n     * function treasurerTransfer allows the Treasurer to transfer token balances to any account with out any checks \n     * \n     */\n    function treasurerTransfer(address _to, uint256 _value) public onlyTreasurer notPaused returns (bool) {\n        require(_value <= balances[treasurer]);\n        balances[_to] += _value;\n        balances[treasurer] -= _value;\n\n        emit Transfer( treasurer, _to, _value);\n        _setTotalTokensInCirculation ();\n\n\n\n    }\n\n\n    /**\n     * @dev Total number of tokens in existence\n     */\n    function totalSupply() public view returns (uint256) {\n        return totalSupply_;\n    }\n\n    /**\n     * @dev Gets the balance of the specified address.\n     * @param _owner The address to query the the balance of.\n     * @return An uint256 representing the amount owned by the passed address.\n     */\n    function balanceOf(address _owner) public view returns (uint256) {\n        return balances[_owner];\n    }\n\n    /**\n     * @dev Function to check the amount of tokens that an owner allowed to a spender.\n     * @param _owner address The address which owns the funds.\n     * @param _spender address The address which will spend the funds.\n     * @return A uint256 specifying the amount of tokens still available for the spender.\n     */\n    function allowance( address _owner, address _spender  )    public    view    returns (uint256)     {\n        return allowed[_owner][_spender];\n    }\n\n    /**\n     * @dev Transfer token for a specified address\n     * @param _to The address to transfer to.\n     * @param _value The amount to be transferred.\n     */\n    function transfer(address _to, uint256 _value) public notPaused returns (bool) {\n        require(_value <= balances[msg.sender]);\n        require(_to != address(0));\n\n        require (checkerContract.check(msg.sender, _to, _value) == AzizaChecker.checkReasonCode.OK);\n\n\n        balances[msg.sender] -= _value;\n        balances[_to] += _value;\n        emit Transfer(msg.sender, _to, _value);\n        return true;\n    }\n\n    /**\n     * @dev Approve the passed address to spend the specified amount of tokens on behalf of msg.sender.\n     * Beware that changing an allowance with this method brings the risk that someone may use both the old\n     * and the new allowance by unfortunate transaction ordering. One possible solution to mitigate this\n     * race condition is to first reduce the spender's allowance to 0 and set the desired value afterwards:\n     * https://github.com/ethereum/EIPs/issues/20#issuecomment-263524729\n     * @param _spender The address which will spend the funds.\n     * @param _value The amount of tokens to be spent.\n     */\n    function approve(address _spender, uint256 _value) public notPaused returns (bool) {\n        allowed[msg.sender][_spender] = _value;\n        emit Approval(msg.sender, _spender, _value);\n        return true;\n    }\n\n    /**\n     * @dev Transfer tokens from one address to another\n     * @param _from address The address which you want to send tokens from\n     * @param _to address The address which you want to transfer to\n     * @param _value uint256 the amount of tokens to be transferred\n     */\n    function transferFrom(     address _from,    address _to,    uint256 _value  )    public  notPaused  returns (bool)  {\n        require(_value <= balances[_from]);\n        require(_value <= allowed[_from][msg.sender]);\n        require(_to != address(0));\n\n        require (checkerContract.check(_from, _to, _value) == AzizaChecker.checkReasonCode.OK);\n\n        balances[_from] -= _value;\n        balances[_to] += _value;\n        allowed[_from][msg.sender] -= _value;\n        emit Transfer(_from, _to, _value);\n        return true;\n    }\n\n    /**\n     * @dev Increase the amount of tokens that an owner allowed to a spender.\n     * approve should be called when allowed[_spender] == 0. To increment\n     * allowed value is better to use this function to avoid 2 calls (and wait until\n     * the first transaction is mined)\n     * From MonolithDAO Token.sol\n     * @param _spender The address which will spend the funds.\n     * @param _addedValue The amount of tokens to increase the allowance by.\n     */\n    function increaseApproval(    address _spender,    uint256 _addedValue  )    public  notPaused  returns (bool)\n    {\n        allowed[msg.sender][_spender] += _addedValue;\n        \n        emit Approval(msg.sender, _spender, allowed[msg.sender][_spender]);\n        return true;\n    }\n\n    /**\n     * @dev Decrease the amount of tokens that an owner allowed to a spender.\n     * approve should be called when allowed[_spender] == 0. To decrement\n     * allowed value is better to use this function to avoid 2 calls (and wait until\n     * the first transaction is mined)\n     * From MonolithDAO Token.sol\n     * @param _spender The address which will spend the funds.\n     * @param _subtractedValue The amount of tokens to decrease the allowance by.\n     */\n    function decreaseApproval(    address _spender,    uint256 _subtractedValue  )    public   notPaused returns (bool)  {\n        uint256 oldValue = allowed[msg.sender][_spender];\n\n        if (_subtractedValue >= oldValue) {\n            allowed[msg.sender][_spender] = 0;\n        } else {\n            allowed[msg.sender][_spender] -= _subtractedValue;\n        }\n        emit Approval(msg.sender, _spender, allowed[msg.sender][_spender]);\n        return true;\n    }\n\n    \n    /**\n     * \n     * Contract admin functions\n     * \n     */\n\n    // super user functions\n    // change super user\n    function superUserTransferSuperUser(address _superUser) external onlySuperUser {\n        superUser = _superUser;\n        emit NewSuperUserAccount(_superUser);\n    }  \n\n    //  Change contract management account - also transafers treasurer balance\n    function superUserTransferTreasurership(address _newTreasurer) external  onlySuperUser {\n        uint256 _xferAmount;\n        \n        _xferAmount = balances[treasurer];\n        \n        balances[_newTreasurer] += _xferAmount;\n\n        balances[treasurer] = 0;\n        treasurer = _newTreasurer;\n        // record transfer\n        emit NewTreasurerAccount(_newTreasurer);\n        emit Transfer(treasurer, _newTreasurer, balances[_newTreasurer]);\n    }  \n\n    // change Foundation accounts, this function transfers balances of tokens from old to new accounts\n    function superUserResetContractAccounts(address _NewFoundationAccount, address _newDeveloperAccount, address _NewReserveAccount)  external onlySuperUser {\n        uint256 _xferAmount;\n        if (_NewFoundationAccount != 0) {\n            _xferAmount = balances[foundationAccount];\n            balances[_NewFoundationAccount] += _xferAmount;\n            balances[foundationAccount] = 0;        \n            foundationAccount = _NewFoundationAccount;\n            // record transfer\n            emit Transfer(foundationAccount, _NewFoundationAccount, _xferAmount);            \n        }\n        if (_newDeveloperAccount != 0) {\n            _xferAmount = balances[developerAccount];\n            balances[_newDeveloperAccount] += _xferAmount;\n            balances[developerAccount] = 0;\n            developerAccount = _newDeveloperAccount;\n            // record transfer\n            emit Transfer(developerAccount, _NewReserveAccount, _xferAmount);\n        }\n        if (_NewReserveAccount != 0) {\n            _xferAmount = balances[reserveAccount];\n            balances[_NewReserveAccount] += _xferAmount;\n            balances[reserveAccount] = 0;\n            reserveAccount = _NewReserveAccount;\n            // record transfer\n            emit Transfer(reserveAccount, _NewReserveAccount, _xferAmount);\n        }\n    }\n\n\n\n\n    // Treasurer functions \n\n    // change admin account\n    function treasurerChangeAdminAccount(address _newAdmin ) external  onlyTreasurer {\n\n        admin = _newAdmin;\n        emit NewAdminAccount(_newAdmin);\n\n    }  \n\n\n\n\n    // Contract State functions\n\n\n\n    function pauseContract ()  external onlyTreasurer   returns (bool success){\n\n        contractPaused = true;\n        // log change of state\n        emit ContractPaused();\n        return true;\n    }\n    function unPauseContract () external  onlyTreasurer   returns (bool success){\n\n        contractPaused = false;\n        // log change of state\n        emit ContractUnpaused();\n        return true;\n    }\n    /**\n    change checkerContract address\n     */\n\n    function changeCheckerContractAddress(address _checkerContract) public onlySuperUser paused {\n                \n                checkerContract = AzizaChecker(_checkerContract);\n                emit NewCheckerContractAddress (_checkerContract);\n\n    }\n\n    /**\n        Constructor\n    */\n\n    constructor ( address _reserveAccount, \n        address _developerAccount,    \n        address _foundationAccount, \n        address _checkerContract,\n        string _tokenName,\n        string _tokenSymbol ) public        {\n   \n   \n        initialSupply = 0; // \n        cap = 100000000000000000; // 10 ** 17\n        totalMinted = 0;\n        totalSupply_ = 0; \n        decimals = 8;\n        // set up superUers, admin and treasurer accounts\n        superUser = msg.sender;\n        treasurer = msg.sender;\n        admin = msg.sender;\n        \n\n        \n        // make sure treasurer is not team or fees or Foundation\n        if (msg.sender == _reserveAccount) revert();\n        if (msg.sender == _developerAccount) revert();\n        if (msg.sender == _foundationAccount) revert();\n\n    \n\n\n        \n        // set up beniciary addresses\n        reserveAccount = _reserveAccount;\n        developerAccount = _developerAccount;\n        foundationAccount = _foundationAccount;\n        // set up token parameters\n\n        name = _tokenName;                      \n        symbol = _tokenSymbol;                  \n        decimals = 8;                            \n        \n\n\n        // Contract not paused, minting allowed, burning allowed\n        contractPaused = false; \n        mintingFinished = false;\n        burningAllowed = true;\n\n        emit ContractUnpaused();\n        \n\n        \n    \n        \n        // Set  total supply\n        // Update total supply        \n        _setTotalTokensInCirculation();\n\n        /* set up checker contract */\n \n        checkerContract = AzizaChecker(_checkerContract);\n\n    } /* end of constructor */\n\n\n\n\n\n\n\n\n\n} /* End of AzizaLedger contract*/\n",
  "sourcePath": "/home/charles/charles@aziza.io/AzizaICO/0000_NewContract/truffle/AzizaDual/contracts/AzizaLedger.sol",
  "compiler": {
    "name": "solc",
    "version": "0.4.24+commit.e67f0147.Emscripten.clang"
  },
  "schemaVersion": "2.0.1",
  "updatedAt": "2018-09-24T11:43:38.755Z"
}